S00F0000484D492D4543552E737265632D
S11300000C942A000C943F000C943F000C943F0085
S11300100C943F000C943F000C943F000C943F0060
S11300200C943F000C943F000C943F000C943F0050
S11300300C943F000C943F000C943F000C943F0040
S11300400C943F000C943F000C943F000C943F0030
S11300500C943F0011241FBECFE5D8E0DEBFCDBF16
S113006011E0A0E6B0E0E8E5F4E002C005900D92EE
S1130070AA30B107D9F70E9435010C942A020C94D6
S1130080000080EF87BB8FEF88BB089584E090E089
S113009041E050E0682F28B3206F28BB78B39A0161
S11300A0082E02C0220F331F0A94E2F7209527235B
S11300B028BBE9EFF0E03197F1F700C0000026B368
S11300C02F702F3029F086B38F708F30E1F706C080
S11300D061E0680F019688309105E1F6683009F413
S11300E04AC064506130B1F028F0623019F16330D5
S11300F089F140C02B3051F018F4273049F03AC050
S11301002D30D9F12E30B1F587E3089581E30895B8
S11301108AE208952B3051F018F4273049F02AC0B0
S11301202D3069F12E3031F588E3089582E3089586
S113013080E308952B3051F018F4273049F01AC0A9
S11301402D30F9F02E30B1F489E3089583E3089556
S113015083E208952B3051F018F4273049F00AC097
S11301602D3089F02E3031F481E4089583E408952C
S113017084E40895089586E4089584E3089585E366
S1130180089586E3089582E40895DA980000000053
S113019083ED90E30197F1F700C00000DA9A089527
S11301A085BBD898D9980E94C500089581E00E9423
S11301B0D00008958AB387608ABB8BB387708BBBEA
S11301C08FEF84BB85EA9EE00197F1F700C0000041
S11301D00E94D60088E30E94D0008EE00E94D000E6
S11301E086E00E94D00080E80E94D0000895D89A4A
S11301F0D99885BB0E94C5000895CF93DF93EC0185
S11302008881882331F021960E94F7008991811119
S1130210FBCFDF91CF910895811105C080E8860F4F
S11302200E94D0000895813029F480EC860F0E944A
S1130230D0000895823029F484E9860F0E94D0000A
S11302400895833021F484ED860F0E94D000089530
S1130250CF93DF93EC01862F642F0E940C01CE0113
S11302600E94FD00DF91CF9108950E94DA000E9460
S113027007020E944100C1C040E060E080E690E0D7
S11302800E942801D0E00E944600C82F863479F0ED
S11302906D2F83E00E940C018C2F0E94F7008C2F9D
S11302A090E00E941E02DF5FD23018F4ECCFD2300F
S11302B050F30E9426028133A0F00E94D6001F5FF3
S11302C040E060E082E790E00E9428012FE38DE0A7
S11302D093E0215080409040E1F700C000000E946C
S11302E0D6000E942602803309F087C00E94D600FF
S11302F040E060E084E890E00E94280140E061E092
S113030086E990E00E94280140E062E086EA90E0FD
S11303100E94280140E063E087EB90E00E942801FE
S11303200E944600C82F8634D9F30E94D600C134F7
S1130330B1F481E490E00E941E020E94D60040E0E5
S113034060E089EC90E00E9428012FE38DE093E0C7
S1130350215080409040E1F700C00000CFCFC2346C
S1130360B1F482E490E00E941E020E94D60040E0B4
S113037060E088ED90E00E9428012FE38DE093E097
S1130380215080409040E1F700C000003EC0C334DB
S113039039F683E490E00E941E020E94D60040E0F9
S11303A060E087EE90E00E942801D0E00E944600C1
S11303B0C82F8634D9F36D2F83E00E940C018C2F53
S11303C00E94F7008C2F90E00E941E02DF5FD23063
S11303D068F30E94D60040E060E08AEF90E00E945B
S11303E028010E94D6002FE38DE093E02150804045
S11303F09040E1F700C0000008C0133008F43CCF7F
S11304008EE490E00E941E02F8CF10E0F6CF7894BC
S113041087E689B9539A549A86E880BD529A599AC4
S113042080B5806880BD80B5806880BD80B58068F7
S113043080BD8AB18AB98AB18AB908955D9BFECF1D
S11304402AB19170922B9AB98CB908955F9BFECF13
S10B04508CB10895F894FFCF6C
S1130458506C6561736520456E74657220706173B4
S1130468730050617373776F7264206973205772D5
S11304786F6E670050617373776F726420697320BD
S1130488726967687400413A4F70656E20546865F4
S113049820446F6F7200423A436C6F73652054684E
S11304A86520446F6F7200433A4368616E67652044
S11304B850617373776F726400446F6F722069734D
S11304C8204F70656E656400446F6F7220697320F5
S11304D8436C6F73656400456E746572204E65776E
S11304E82050617373776F72640050617373776F10
S10D04F8726420536176656400000D
S9030000FC
