S01000004352544C5F4543552E73726563A3
S11300000C942A000C9434000C9434000C943400A6
S11300100C9434000C9434000C9434000C9434008C
S11300200C9434000C9434000C9434000C9434007C
S11300300C9434000C9434000C9434000C9434006C
S11300400C9434000C9434000C9434000C9434005C
S11300500C94340011241FBECFE5D8E0DEBFCDBF21
S11300600E9436000C94AB010C940000CF93DF93F4
S11300701F92CDB7DEB70E9488010E94670161E438
S113008080E090E00E94B8008FE19EE40197F1F7D0
S113009000C0000062E481E090E00E94B8008FE1BB
S11300A09EE40197F1F700C000000F2EF0E3AF2E9D
S11300B0B12CF02DE12CD12C11C00E94A701182FD6
S11300C0BE016F5F7F4F8E2D90E00E94EF0089810B
S11300D0181719F09FEFA91AB90AE39481E08E1555
S11300E060F7C5010E949F01C5010E949F011E3453
S11300F069F40E94410190E3A916B10461F00F2E46
S1130100F0E3AF2EB12CF02DED2CE8CF1F3499F78E
S11301100E944401F0CF0E94A701182F813419F4E2
S11301200E944701F8CF823421F40E945701ED2C3C
S1130130D5CF833481F70E94A701682F80E090E037
S11301400E94B8008FE19EE40197F1F700C000001F
S11301500E94A701182F682F81E090E00E94B80048
S11301608FE19EE40197F1F700C00000ED2CB6CFBB
S11301701F93CF93DF93EC01162F0E946E010E9410
S11301808501883009F5CE0188279770880F892F5B
S1130190881F990B9195806A0E9477010E948501BE
S11301A08831A1F48C2F0E9477010E948501883246
S11301B079F4812F0E9477010E948501883251F4DD
S11301C00E9474018FEF07C080E005C080E003C087
S11301D080E001C080E0DF91CF911F910895EF92FC
S11301E0FF920F931F93CF93DF93EC018B010E9437
S11301F06E010E948501883091F57E01EE2487E02E
S1130200F822EE0CEF2CEE1CFF08F1948E2D806A80
S11302100E9477010E948501883119F58C2F0E9474
S113022077010E9485018832F1F40E946E010E94D8
S113023085018031D1F48E2D816A0E9477010E945C
S113024085018034A1F40E947E01F80180830E941C
S11302508501883571F40E9474018FEF0BC080E032
S113026009C080E007C080E005C080E003C080E0F2
S113027001C080E0DF91CF911F910F91FF90EF902B
S11302800895A59AAD9A0895A59AAD9808958FB545
S1130290826A8FBD8EB58A618EBD8FE19EE497BD63
S11302A086BD8D9A86ED94E09BBD8ABD08958FB579
S11302B0826A8FBD8EB58A618EBD8FE19EE497BD43
S11302C086BD8D9A81E591E09BBD8ABD089582E04B
S11302D080B911B882B984E086BF089584EA86BFE4
S11302E006B607FEFDCF089584E986BF089583B955
S11302F084E886BF06B607FEFDCF089584E886BF6E
S113030006B607FEFDCF83B1089581B1887F0895B5
S1130310789487E689B9539A549A86E880BD529AAC
S1130320599A80B5806880BD80B5806880BD80B5ED
S1130330806880BD8AB18AB98AB18AB908955D9B03
S1130340FECF2AB19170922B9AB98CB908955F9B14
S10D0350FECF8CB10895F894FFCF9E
S9030000FC
